{
  "_format": "hh-sol-artifact-1",
  "contractName": "SomeToken",
  "sourceName": "contracts/SomeToken.sol",
  "abi": [
    {
      "inputs": [
        {
          "internalType": "address[]",
          "name": "accounts",
          "type": "address[]"
        }
      ],
      "stateMutability": "nonpayable",
      "type": "constructor"
    },
    {
      "inputs": [
        {
          "internalType": "address",
          "name": "spender",
          "type": "address"
        },
        {
          "internalType": "uint256",
          "name": "allowance",
          "type": "uint256"
        },
        {
          "internalType": "uint256",
          "name": "needed",
          "type": "uint256"
        }
      ],
      "name": "ERC20InsufficientAllowance",
      "type": "error"
    },
    {
      "inputs": [
        {
          "internalType": "address",
          "name": "sender",
          "type": "address"
        },
        {
          "internalType": "uint256",
          "name": "balance",
          "type": "uint256"
        },
        {
          "internalType": "uint256",
          "name": "needed",
          "type": "uint256"
        }
      ],
      "name": "ERC20InsufficientBalance",
      "type": "error"
    },
    {
      "inputs": [
        {
          "internalType": "address",
          "name": "approver",
          "type": "address"
        }
      ],
      "name": "ERC20InvalidApprover",
      "type": "error"
    },
    {
      "inputs": [
        {
          "internalType": "address",
          "name": "receiver",
          "type": "address"
        }
      ],
      "name": "ERC20InvalidReceiver",
      "type": "error"
    },
    {
      "inputs": [
        {
          "internalType": "address",
          "name": "sender",
          "type": "address"
        }
      ],
      "name": "ERC20InvalidSender",
      "type": "error"
    },
    {
      "inputs": [
        {
          "internalType": "address",
          "name": "spender",
          "type": "address"
        }
      ],
      "name": "ERC20InvalidSpender",
      "type": "error"
    },
    {
      "inputs": [
        {
          "internalType": "uint256",
          "name": "currentSupply",
          "type": "uint256"
        },
        {
          "internalType": "uint256",
          "name": "maxSupply",
          "type": "uint256"
        }
      ],
      "name": "MaxSupplyExceeded",
      "type": "error"
    },
    {
      "inputs": [
        {
          "internalType": "address",
          "name": "owner",
          "type": "address"
        }
      ],
      "name": "OwnableInvalidOwner",
      "type": "error"
    },
    {
      "inputs": [
        {
          "internalType": "address",
          "name": "account",
          "type": "address"
        }
      ],
      "name": "OwnableUnauthorizedAccount",
      "type": "error"
    },
    {
      "anonymous": false,
      "inputs": [
        {
          "indexed": true,
          "internalType": "address",
          "name": "owner",
          "type": "address"
        },
        {
          "indexed": true,
          "internalType": "address",
          "name": "spender",
          "type": "address"
        },
        {
          "indexed": false,
          "internalType": "uint256",
          "name": "value",
          "type": "uint256"
        }
      ],
      "name": "Approval",
      "type": "event"
    },
    {
      "anonymous": false,
      "inputs": [
        {
          "indexed": true,
          "internalType": "address",
          "name": "previousOwner",
          "type": "address"
        },
        {
          "indexed": true,
          "internalType": "address",
          "name": "newOwner",
          "type": "address"
        }
      ],
      "name": "OwnershipTransferred",
      "type": "event"
    },
    {
      "anonymous": false,
      "inputs": [
        {
          "indexed": true,
          "internalType": "address",
          "name": "from",
          "type": "address"
        },
        {
          "indexed": true,
          "internalType": "address",
          "name": "to",
          "type": "address"
        },
        {
          "indexed": false,
          "internalType": "uint256",
          "name": "value",
          "type": "uint256"
        }
      ],
      "name": "Transfer",
      "type": "event"
    },
    {
      "inputs": [],
      "name": "INITIAL_MINT",
      "outputs": [
        {
          "internalType": "uint256",
          "name": "",
          "type": "uint256"
        }
      ],
      "stateMutability": "view",
      "type": "function"
    },
    {
      "inputs": [],
      "name": "MAX_SUPPLY",
      "outputs": [
        {
          "internalType": "uint256",
          "name": "",
          "type": "uint256"
        }
      ],
      "stateMutability": "view",
      "type": "function"
    },
    {
      "inputs": [
        {
          "internalType": "address",
          "name": "owner",
          "type": "address"
        },
        {
          "internalType": "address",
          "name": "spender",
          "type": "address"
        }
      ],
      "name": "allowance",
      "outputs": [
        {
          "internalType": "uint256",
          "name": "",
          "type": "uint256"
        }
      ],
      "stateMutability": "view",
      "type": "function"
    },
    {
      "inputs": [
        {
          "internalType": "address",
          "name": "spender",
          "type": "address"
        },
        {
          "internalType": "uint256",
          "name": "value",
          "type": "uint256"
        }
      ],
      "name": "approve",
      "outputs": [
        {
          "internalType": "bool",
          "name": "",
          "type": "bool"
        }
      ],
      "stateMutability": "nonpayable",
      "type": "function"
    },
    {
      "inputs": [
        {
          "internalType": "address",
          "name": "account",
          "type": "address"
        }
      ],
      "name": "balanceOf",
      "outputs": [
        {
          "internalType": "uint256",
          "name": "",
          "type": "uint256"
        }
      ],
      "stateMutability": "view",
      "type": "function"
    },
    {
      "inputs": [],
      "name": "decimals",
      "outputs": [
        {
          "internalType": "uint8",
          "name": "",
          "type": "uint8"
        }
      ],
      "stateMutability": "view",
      "type": "function"
    },
    {
      "inputs": [
        {
          "internalType": "address",
          "name": "account",
          "type": "address"
        },
        {
          "internalType": "uint256",
          "name": "value",
          "type": "uint256"
        }
      ],
      "name": "mint",
      "outputs": [],
      "stateMutability": "nonpayable",
      "type": "function"
    },
    {
      "inputs": [],
      "name": "name",
      "outputs": [
        {
          "internalType": "string",
          "name": "",
          "type": "string"
        }
      ],
      "stateMutability": "view",
      "type": "function"
    },
    {
      "inputs": [],
      "name": "owner",
      "outputs": [
        {
          "internalType": "address",
          "name": "",
          "type": "address"
        }
      ],
      "stateMutability": "view",
      "type": "function"
    },
    {
      "inputs": [],
      "name": "renounceOwnership",
      "outputs": [],
      "stateMutability": "nonpayable",
      "type": "function"
    },
    {
      "inputs": [],
      "name": "symbol",
      "outputs": [
        {
          "internalType": "string",
          "name": "",
          "type": "string"
        }
      ],
      "stateMutability": "view",
      "type": "function"
    },
    {
      "inputs": [],
      "name": "totalSupply",
      "outputs": [
        {
          "internalType": "uint256",
          "name": "",
          "type": "uint256"
        }
      ],
      "stateMutability": "view",
      "type": "function"
    },
    {
      "inputs": [
        {
          "internalType": "address",
          "name": "to",
          "type": "address"
        },
        {
          "internalType": "uint256",
          "name": "value",
          "type": "uint256"
        }
      ],
      "name": "transfer",
      "outputs": [
        {
          "internalType": "bool",
          "name": "",
          "type": "bool"
        }
      ],
      "stateMutability": "nonpayable",
      "type": "function"
    },
    {
      "inputs": [
        {
          "internalType": "address",
          "name": "from",
          "type": "address"
        },
        {
          "internalType": "address",
          "name": "to",
          "type": "address"
        },
        {
          "internalType": "uint256",
          "name": "value",
          "type": "uint256"
        }
      ],
      "name": "transferFrom",
      "outputs": [
        {
          "internalType": "bool",
          "name": "",
          "type": "bool"
        }
      ],
      "stateMutability": "nonpayable",
      "type": "function"
    },
    {
      "inputs": [
        {
          "internalType": "address",
          "name": "newOwner",
          "type": "address"
        }
      ],
      "name": "transferOwnership",
      "outputs": [],
      "stateMutability": "nonpayable",
      "type": "function"
    }
  ],
  "bytecode": "0x60c06040526100126101eb60201b60201c565b600a61001e91906106e0565b620186a061002c919061072b565b6080908152506100406101eb60201b60201c565b600a61004c91906106e0565b620f424061005a919061072b565b60a09081525034801561006c57600080fd5b506040516120a43803806120a4833981810160405281019061008e9190610938565b336040518060400160405280600981526020017f536f6d65546f6b656e00000000000000000000000000000000000000000000008152506040518060400160405280600381526020017f53544b0000000000000000000000000000000000000000000000000000000000815250816003908161010a9190610b98565b50806004908161011a9190610b98565b505050600073ffffffffffffffffffffffffffffffffffffffff168173ffffffffffffffffffffffffffffffffffffffff160361018f5760006040517f1e4fbdf70000000000000000000000000000000000000000000000000000000081526004016101869190610c79565b60405180910390fd5b61019e816101f460201b60201c565b5060005b81518110156101e4576101d78282815181106101c1576101c0610c94565b5b60200260200101516080516102ba60201b60201c565b80806001019150506101a2565b5050610d58565b60006012905090565b6000600560009054906101000a900473ffffffffffffffffffffffffffffffffffffffff16905081600560006101000a81548173ffffffffffffffffffffffffffffffffffffffff021916908373ffffffffffffffffffffffffffffffffffffffff1602179055508173ffffffffffffffffffffffffffffffffffffffff168173ffffffffffffffffffffffffffffffffffffffff167f8be0079c531659141344cd1fd0a4f28419497f9722a3daafe3b4186f6b6457e060405160405180910390a35050565b600073ffffffffffffffffffffffffffffffffffffffff168273ffffffffffffffffffffffffffffffffffffffff160361032c5760006040517fec442f050000000000000000000000000000000000000000000000000000000081526004016103239190610c79565b60405180910390fd5b61033e6000838361034260201b60201c565b5050565b600073ffffffffffffffffffffffffffffffffffffffff168373ffffffffffffffffffffffffffffffffffffffff16036103945780600260008282546103889190610cc3565b92505081905550610467565b60008060008573ffffffffffffffffffffffffffffffffffffffff1673ffffffffffffffffffffffffffffffffffffffff16815260200190815260200160002054905081811015610420578381836040517fe450d38c00000000000000000000000000000000000000000000000000000000815260040161041793929190610d06565b60405180910390fd5b8181036000808673ffffffffffffffffffffffffffffffffffffffff1673ffffffffffffffffffffffffffffffffffffffff16815260200190815260200160002081905550505b600073ffffffffffffffffffffffffffffffffffffffff168273ffffffffffffffffffffffffffffffffffffffff16036104b057806002600082825403925050819055506104fd565b806000808473ffffffffffffffffffffffffffffffffffffffff1673ffffffffffffffffffffffffffffffffffffffff168152602001908152602001600020600082825401925050819055505b8173ffffffffffffffffffffffffffffffffffffffff168373ffffffffffffffffffffffffffffffffffffffff167fddf252ad1be2c89b69c2b068fc378daa952ba7f163c4a11628f55a4df523b3ef8360405161055a9190610d3d565b60405180910390a3505050565b7f4e487b7100000000000000000000000000000000000000000000000000000000600052601160045260246000fd5b60008160011c9050919050565b6000808291508390505b60018511156105ed578086048111156105c9576105c8610567565b5b60018516156105d85780820291505b80810290506105e685610596565b94506105ad565b94509492505050565b60008261060657600190506106c2565b8161061457600090506106c2565b816001811461062a576002811461063457610663565b60019150506106c2565b60ff84111561064657610645610567565b5b8360020a91508482111561065d5761065c610567565b5b506106c2565b5060208310610133831016604e8410600b84101617156106985782820a90508381111561069357610692610567565b5b6106c2565b6106a584848460016105a3565b925090508184048111156106bc576106bb610567565b5b81810290505b9392505050565b6000819050919050565b600060ff82169050919050565b60006106eb826106c9565b91506106f6836106d3565b92506107237fffffffffffffffffffffffffffffffffffffffffffffffffffffffffffffffff84846105f6565b905092915050565b6000610736826106c9565b9150610741836106c9565b925082820261074f816106c9565b9150828204841483151761076657610765610567565b5b5092915050565b6000604051905090565b600080fd5b600080fd5b600080fd5b6000601f19601f8301169050919050565b7f4e487b7100000000000000000000000000000000000000000000000000000000600052604160045260246000fd5b6107cf82610786565b810181811067ffffffffffffffff821117156107ee576107ed610797565b5b80604052505050565b600061080161076d565b905061080d82826107c6565b919050565b600067ffffffffffffffff82111561082d5761082c610797565b5b602082029050602081019050919050565b600080fd5b600073ffffffffffffffffffffffffffffffffffffffff82169050919050565b600061086e82610843565b9050919050565b61087e81610863565b811461088957600080fd5b50565b60008151905061089b81610875565b92915050565b60006108b46108af84610812565b6107f7565b905080838252602082019050602084028301858111156108d7576108d661083e565b5b835b8181101561090057806108ec888261088c565b8452602084019350506020810190506108d9565b5050509392505050565b600082601f83011261091f5761091e610781565b5b815161092f8482602086016108a1565b91505092915050565b60006020828403121561094e5761094d610777565b5b600082015167ffffffffffffffff81111561096c5761096b61077c565b5b6109788482850161090a565b91505092915050565b600081519050919050565b7f4e487b7100000000000000000000000000000000000000000000000000000000600052602260045260246000fd5b600060028204905060018216806109d357607f821691505b6020821081036109e6576109e561098c565b5b50919050565b60008190508160005260206000209050919050565b60006020601f8301049050919050565b600082821b905092915050565b600060088302610a4e7fffffffffffffffffffffffffffffffffffffffffffffffffffffffffffffffff82610a11565b610a588683610a11565b95508019841693508086168417925050509392505050565b6000819050919050565b6000610a95610a90610a8b846106c9565b610a70565b6106c9565b9050919050565b6000819050919050565b610aaf83610a7a565b610ac3610abb82610a9c565b848454610a1e565b825550505050565b600090565b610ad8610acb565b610ae3818484610aa6565b505050565b5b81811015610b0757610afc600082610ad0565b600181019050610ae9565b5050565b601f821115610b4c57610b1d816109ec565b610b2684610a01565b81016020851015610b35578190505b610b49610b4185610a01565b830182610ae8565b50505b505050565b600082821c905092915050565b6000610b6f60001984600802610b51565b1980831691505092915050565b6000610b888383610b5e565b9150826002028217905092915050565b610ba182610981565b67ffffffffffffffff811115610bba57610bb9610797565b5b610bc482546109bb565b610bcf828285610b0b565b600060209050601f831160018114610c025760008415610bf0578287015190505b610bfa8582610b7c565b865550610c62565b601f198416610c10866109ec565b60005b82811015610c3857848901518255600182019150602085019450602081019050610c13565b86831015610c555784890151610c51601f891682610b5e565b8355505b6001600288020188555050505b505050505050565b610c7381610863565b82525050565b6000602082019050610c8e6000830184610c6a565b92915050565b7f4e487b7100000000000000000000000000000000000000000000000000000000600052603260045260246000fd5b6000610cce826106c9565b9150610cd9836106c9565b9250828201905080821115610cf157610cf0610567565b5b92915050565b610d00816106c9565b82525050565b6000606082019050610d1b6000830186610c6a565b610d286020830185610cf7565b610d356040830184610cf7565b949350505050565b6000602082019050610d526000830184610cf7565b92915050565b60805160a051611319610d8b600039600081816103f70152818161042301526104700152600061061701526113196000f3fe608060405234801561001057600080fd5b50600436106100f55760003560e01c806370a0823111610097578063a9059cbb11610066578063a9059cbb14610264578063ca7df92c14610294578063dd62ed3e146102b2578063f2fde38b146102e2576100f5565b806370a08231146101ee578063715018a61461021e5780638da5cb5b1461022857806395d89b4114610246576100f5565b806323b872dd116100d357806323b872dd14610166578063313ce5671461019657806332cb6b0c146101b457806340c10f19146101d2576100f5565b806306fdde03146100fa578063095ea7b31461011857806318160ddd14610148575b600080fd5b6101026102fe565b60405161010f9190610f44565b60405180910390f35b610132600480360381019061012d9190610fff565b610390565b60405161013f919061105a565b60405180910390f35b6101506103b3565b60405161015d9190611084565b60405180910390f35b610180600480360381019061017b919061109f565b6103bd565b60405161018d919061105a565b60405180910390f35b61019e6103ec565b6040516101ab919061110e565b60405180910390f35b6101bc6103f5565b6040516101c99190611084565b60405180910390f35b6101ec60048036038101906101e79190610fff565b610419565b005b61020860048036038101906102039190611129565b6104da565b6040516102159190611084565b60405180910390f35b610226610522565b005b610230610536565b60405161023d9190611165565b60405180910390f35b61024e610560565b60405161025b9190610f44565b60405180910390f35b61027e60048036038101906102799190610fff565b6105f2565b60405161028b919061105a565b60405180910390f35b61029c610615565b6040516102a99190611084565b60405180910390f35b6102cc60048036038101906102c79190611180565b610639565b6040516102d99190611084565b60405180910390f35b6102fc60048036038101906102f79190611129565b6106c0565b005b60606003805461030d906111ef565b80601f0160208091040260200160405190810160405280929190818152602001828054610339906111ef565b80156103865780601f1061035b57610100808354040283529160200191610386565b820191906000526020600020905b81548152906001019060200180831161036957829003601f168201915b5050505050905090565b60008061039b610746565b90506103a881858561074e565b600191505092915050565b6000600254905090565b6000806103c8610746565b90506103d5858285610760565b6103e08585856107f5565b60019150509392505050565b60006012905090565b7f000000000000000000000000000000000000000000000000000000000000000081565b6104216108e9565b7f00000000000000000000000000000000000000000000000000000000000000008161044b6103b3565b610455919061124f565b11156104cc57806104646103b3565b61046e919061124f565b7f00000000000000000000000000000000000000000000000000000000000000006040517fea0582460000000000000000000000000000000000000000000000000000000081526004016104c3929190611283565b60405180910390fd5b6104d68282610970565b5050565b60008060008373ffffffffffffffffffffffffffffffffffffffff1673ffffffffffffffffffffffffffffffffffffffff168152602001908152602001600020549050919050565b61052a6108e9565b61053460006109f2565b565b6000600560009054906101000a900473ffffffffffffffffffffffffffffffffffffffff16905090565b60606004805461056f906111ef565b80601f016020809104026020016040519081016040528092919081815260200182805461059b906111ef565b80156105e85780601f106105bd576101008083540402835291602001916105e8565b820191906000526020600020905b8154815290600101906020018083116105cb57829003601f168201915b5050505050905090565b6000806105fd610746565b905061060a8185856107f5565b600191505092915050565b7f000000000000000000000000000000000000000000000000000000000000000081565b6000600160008473ffffffffffffffffffffffffffffffffffffffff1673ffffffffffffffffffffffffffffffffffffffff16815260200190815260200160002060008373ffffffffffffffffffffffffffffffffffffffff1673ffffffffffffffffffffffffffffffffffffffff16815260200190815260200160002054905092915050565b6106c86108e9565b600073ffffffffffffffffffffffffffffffffffffffff168173ffffffffffffffffffffffffffffffffffffffff160361073a5760006040517f1e4fbdf70000000000000000000000000000000000000000000000000000000081526004016107319190611165565b60405180910390fd5b610743816109f2565b50565b600033905090565b61075b8383836001610ab8565b505050565b600061076c8484610639565b90507fffffffffffffffffffffffffffffffffffffffffffffffffffffffffffffffff8110156107ef57818110156107df578281836040517ffb8f41b20000000000000000000000000000000000000000000000000000000081526004016107d6939291906112ac565b60405180910390fd5b6107ee84848484036000610ab8565b5b50505050565b600073ffffffffffffffffffffffffffffffffffffffff168373ffffffffffffffffffffffffffffffffffffffff16036108675760006040517f96c6fd1e00000000000000000000000000000000000000000000000000000000815260040161085e9190611165565b60405180910390fd5b600073ffffffffffffffffffffffffffffffffffffffff168273ffffffffffffffffffffffffffffffffffffffff16036108d95760006040517fec442f050000000000000000000000000000000000000000000000000000000081526004016108d09190611165565b60405180910390fd5b6108e4838383610c8f565b505050565b6108f1610746565b73ffffffffffffffffffffffffffffffffffffffff1661090f610536565b73ffffffffffffffffffffffffffffffffffffffff161461096e57610932610746565b6040517f118cdaa70000000000000000000000000000000000000000000000000000000081526004016109659190611165565b60405180910390fd5b565b600073ffffffffffffffffffffffffffffffffffffffff168273ffffffffffffffffffffffffffffffffffffffff16036109e25760006040517fec442f050000000000000000000000000000000000000000000000000000000081526004016109d99190611165565b60405180910390fd5b6109ee60008383610c8f565b5050565b6000600560009054906101000a900473ffffffffffffffffffffffffffffffffffffffff16905081600560006101000a81548173ffffffffffffffffffffffffffffffffffffffff021916908373ffffffffffffffffffffffffffffffffffffffff1602179055508173ffffffffffffffffffffffffffffffffffffffff168173ffffffffffffffffffffffffffffffffffffffff167f8be0079c531659141344cd1fd0a4f28419497f9722a3daafe3b4186f6b6457e060405160405180910390a35050565b600073ffffffffffffffffffffffffffffffffffffffff168473ffffffffffffffffffffffffffffffffffffffff1603610b2a5760006040517fe602df05000000000000000000000000000000000000000000000000000000008152600401610b219190611165565b60405180910390fd5b600073ffffffffffffffffffffffffffffffffffffffff168373ffffffffffffffffffffffffffffffffffffffff1603610b9c5760006040517f94280d62000000000000000000000000000000000000000000000000000000008152600401610b939190611165565b60405180910390fd5b81600160008673ffffffffffffffffffffffffffffffffffffffff1673ffffffffffffffffffffffffffffffffffffffff16815260200190815260200160002060008573ffffffffffffffffffffffffffffffffffffffff1673ffffffffffffffffffffffffffffffffffffffff168152602001908152602001600020819055508015610c89578273ffffffffffffffffffffffffffffffffffffffff168473ffffffffffffffffffffffffffffffffffffffff167f8c5be1e5ebec7d5bd14f71427d1e84f3dd0314c0f7b2291e5b200ac8c7c3b92584604051610c809190611084565b60405180910390a35b50505050565b600073ffffffffffffffffffffffffffffffffffffffff168373ffffffffffffffffffffffffffffffffffffffff1603610ce1578060026000828254610cd5919061124f565b92505081905550610db4565b60008060008573ffffffffffffffffffffffffffffffffffffffff1673ffffffffffffffffffffffffffffffffffffffff16815260200190815260200160002054905081811015610d6d578381836040517fe450d38c000000000000000000000000000000000000000000000000000000008152600401610d64939291906112ac565b60405180910390fd5b8181036000808673ffffffffffffffffffffffffffffffffffffffff1673ffffffffffffffffffffffffffffffffffffffff16815260200190815260200160002081905550505b600073ffffffffffffffffffffffffffffffffffffffff168273ffffffffffffffffffffffffffffffffffffffff1603610dfd5780600260008282540392505081905550610e4a565b806000808473ffffffffffffffffffffffffffffffffffffffff1673ffffffffffffffffffffffffffffffffffffffff168152602001908152602001600020600082825401925050819055505b8173ffffffffffffffffffffffffffffffffffffffff168373ffffffffffffffffffffffffffffffffffffffff167fddf252ad1be2c89b69c2b068fc378daa952ba7f163c4a11628f55a4df523b3ef83604051610ea79190611084565b60405180910390a3505050565b600081519050919050565b600082825260208201905092915050565b60005b83811015610eee578082015181840152602081019050610ed3565b60008484015250505050565b6000601f19601f8301169050919050565b6000610f1682610eb4565b610f208185610ebf565b9350610f30818560208601610ed0565b610f3981610efa565b840191505092915050565b60006020820190508181036000830152610f5e8184610f0b565b905092915050565b600080fd5b600073ffffffffffffffffffffffffffffffffffffffff82169050919050565b6000610f9682610f6b565b9050919050565b610fa681610f8b565b8114610fb157600080fd5b50565b600081359050610fc381610f9d565b92915050565b6000819050919050565b610fdc81610fc9565b8114610fe757600080fd5b50565b600081359050610ff981610fd3565b92915050565b6000806040838503121561101657611015610f66565b5b600061102485828601610fb4565b925050602061103585828601610fea565b9150509250929050565b60008115159050919050565b6110548161103f565b82525050565b600060208201905061106f600083018461104b565b92915050565b61107e81610fc9565b82525050565b60006020820190506110996000830184611075565b92915050565b6000806000606084860312156110b8576110b7610f66565b5b60006110c686828701610fb4565b93505060206110d786828701610fb4565b92505060406110e886828701610fea565b9150509250925092565b600060ff82169050919050565b611108816110f2565b82525050565b600060208201905061112360008301846110ff565b92915050565b60006020828403121561113f5761113e610f66565b5b600061114d84828501610fb4565b91505092915050565b61115f81610f8b565b82525050565b600060208201905061117a6000830184611156565b92915050565b6000806040838503121561119757611196610f66565b5b60006111a585828601610fb4565b92505060206111b685828601610fb4565b9150509250929050565b7f4e487b7100000000000000000000000000000000000000000000000000000000600052602260045260246000fd5b6000600282049050600182168061120757607f821691505b60208210810361121a576112196111c0565b5b50919050565b7f4e487b7100000000000000000000000000000000000000000000000000000000600052601160045260246000fd5b600061125a82610fc9565b915061126583610fc9565b925082820190508082111561127d5761127c611220565b5b92915050565b60006040820190506112986000830185611075565b6112a56020830184611075565b9392505050565b60006060820190506112c16000830186611156565b6112ce6020830185611075565b6112db6040830184611075565b94935050505056fea26469706673582212200c5cb602f0bf3949410db96e4e800a41bd357c20540ba0744ca7cb454c416bb264736f6c634300081c0033",
  "linkReferences": {},
  "deployedLinkReferences": {}
}